{"abi":[{"type":"constructor","inputs":[],"stateMutability":"nonpayable"},{"type":"function","name":"EMERGENCY_DELAY","inputs":[],"outputs":[{"name":"","type":"uint256","internalType":"uint256"}],"stateMutability":"view"},{"type":"function","name":"PROTOCOL_FEE_BPS","inputs":[],"outputs":[{"name":"","type":"uint256","internalType":"uint256"}],"stateMutability":"view"},{"type":"function","name":"arenaCreatedAt","inputs":[{"name":"","type":"uint256","internalType":"uint256"}],"outputs":[{"name":"","type":"uint256","internalType":"uint256"}],"stateMutability":"view"},{"type":"function","name":"arenaCreatureIds","inputs":[{"name":"","type":"uint256","internalType":"uint256"},{"name":"","type":"uint256","internalType":"uint256"}],"outputs":[{"name":"","type":"uint256","internalType":"uint256"}],"stateMutability":"view"},{"type":"function","name":"arenaCreatures","inputs":[{"name":"","type":"uint256","internalType":"uint256"},{"name":"","type":"uint256","internalType":"uint256"}],"outputs":[{"name":"id","type":"uint256","internalType":"uint256"},{"name":"owner","type":"address","internalType":"address"},{"name":"speed","type":"uint8","internalType":"uint8"},{"name":"strength","type":"uint8","internalType":"uint8"},{"name":"intelligence","type":"uint8","internalType":"uint8"},{"name":"aggression","type":"uint8","internalType":"uint8"},{"name":"reproRate","type":"uint8","internalType":"uint8"},{"name":"defense","type":"uint8","internalType":"uint8"},{"name":"energy","type":"uint16","internalType":"uint16"},{"name":"hp","type":"uint16","internalType":"uint16"},{"name":"x","type":"uint8","internalType":"uint8"},{"name":"y","type":"uint8","internalType":"uint8"},{"name":"generation","type":"uint32","internalType":"uint32"},{"name":"alive","type":"bool","internalType":"bool"},{"name":"genome","type":"bytes32","internalType":"bytes32"}],"stateMutability":"view"},{"type":"function","name":"arenaPlayerCount","inputs":[{"name":"","type":"uint256","internalType":"uint256"}],"outputs":[{"name":"","type":"uint256","internalType":"uint256"}],"stateMutability":"view"},{"type":"function","name":"arenaPlayers","inputs":[{"name":"","type":"uint256","internalType":"uint256"},{"name":"","type":"uint256","internalType":"uint256"}],"outputs":[{"name":"","type":"address","internalType":"address"}],"stateMutability":"view"},{"type":"function","name":"arenas","inputs":[{"name":"","type":"uint256","internalType":"uint256"}],"outputs":[{"name":"id","type":"uint256","internalType":"uint256"},{"name":"state","type":"uint8","internalType":"enum EvoPolkaArena.ArenaState"},{"name":"stakePerPlayer","type":"uint256","internalType":"uint256"},{"name":"totalPot","type":"uint256","internalType":"uint256"},{"name":"roundNumber","type":"uint256","internalType":"uint256"},{"name":"maxRounds","type":"uint256","internalType":"uint256"},{"name":"gridSize","type":"uint256","internalType":"uint256"},{"name":"creaturesPerPlayer","type":"uint256","internalType":"uint256"},{"name":"mutationRate","type":"uint256","internalType":"uint256"},{"name":"lastRoundBlock","type":"uint256","internalType":"uint256"},{"name":"roundInterval","type":"uint256","internalType":"uint256"}],"stateMutability":"view"},{"type":"function","name":"claimReward","inputs":[{"name":"arenaId","type":"uint256","internalType":"uint256"}],"outputs":[],"stateMutability":"nonpayable"},{"type":"function","name":"continueRound","inputs":[{"name":"arenaId","type":"uint256","internalType":"uint256"}],"outputs":[],"stateMutability":"nonpayable"},{"type":"function","name":"createArena","inputs":[{"name":"stakePerPlayer","type":"uint256","internalType":"uint256"},{"name":"maxRounds","type":"uint256","internalType":"uint256"},{"name":"gridSize","type":"uint256","internalType":"uint256"},{"name":"creaturesPerPlayer","type":"uint256","internalType":"uint256"},{"name":"mutationRate","type":"uint256","internalType":"uint256"},{"name":"roundInterval","type":"uint256","internalType":"uint256"}],"outputs":[{"name":"arenaId","type":"uint256","internalType":"uint256"}],"stateMutability":"nonpayable"},{"type":"function","name":"currentPhase","inputs":[{"name":"","type":"uint256","internalType":"uint256"}],"outputs":[{"name":"","type":"uint8","internalType":"uint8"}],"stateMutability":"view"},{"type":"function","name":"distributeRewards","inputs":[{"name":"arenaId","type":"uint256","internalType":"uint256"}],"outputs":[],"stateMutability":"nonpayable"},{"type":"function","name":"emergencyWithdraw","inputs":[{"name":"arenaId","type":"uint256","internalType":"uint256"}],"outputs":[],"stateMutability":"nonpayable"},{"type":"function","name":"feeRecipient","inputs":[],"outputs":[{"name":"","type":"address","internalType":"address"}],"stateMutability":"view"},{"type":"function","name":"foodTiles","inputs":[{"name":"","type":"uint256","internalType":"uint256"},{"name":"","type":"uint256","internalType":"uint256"}],"outputs":[{"name":"","type":"bool","internalType":"bool"}],"stateMutability":"view"},{"type":"function","name":"getAllCreatures","inputs":[{"name":"arenaId","type":"uint256","internalType":"uint256"}],"outputs":[{"name":"","type":"tuple[]","internalType":"struct CreatureLib.Creature[]","components":[{"name":"id","type":"uint256","internalType":"uint256"},{"name":"owner","type":"address","internalType":"address"},{"name":"speed","type":"uint8","internalType":"uint8"},{"name":"strength","type":"uint8","internalType":"uint8"},{"name":"intelligence","type":"uint8","internalType":"uint8"},{"name":"aggression","type":"uint8","internalType":"uint8"},{"name":"reproRate","type":"uint8","internalType":"uint8"},{"name":"defense","type":"uint8","internalType":"uint8"},{"name":"energy","type":"uint16","internalType":"uint16"},{"name":"hp","type":"uint16","internalType":"uint16"},{"name":"x","type":"uint8","internalType":"uint8"},{"name":"y","type":"uint8","internalType":"uint8"},{"name":"generation","type":"uint32","internalType":"uint32"},{"name":"alive","type":"bool","internalType":"bool"},{"name":"genome","type":"bytes32","internalType":"bytes32"}]}],"stateMutability":"view"},{"type":"function","name":"getArena","inputs":[{"name":"arenaId","type":"uint256","internalType":"uint256"}],"outputs":[{"name":"","type":"tuple","internalType":"struct EvoPolkaArena.Arena","components":[{"name":"id","type":"uint256","internalType":"uint256"},{"name":"state","type":"uint8","internalType":"enum EvoPolkaArena.ArenaState"},{"name":"stakePerPlayer","type":"uint256","internalType":"uint256"},{"name":"totalPot","type":"uint256","internalType":"uint256"},{"name":"roundNumber","type":"uint256","internalType":"uint256"},{"name":"maxRounds","type":"uint256","internalType":"uint256"},{"name":"gridSize","type":"uint256","internalType":"uint256"},{"name":"creaturesPerPlayer","type":"uint256","internalType":"uint256"},{"name":"mutationRate","type":"uint256","internalType":"uint256"},{"name":"lastRoundBlock","type":"uint256","internalType":"uint256"},{"name":"roundInterval","type":"uint256","internalType":"uint256"}]}],"stateMutability":"view"},{"type":"function","name":"getCreature","inputs":[{"name":"arenaId","type":"uint256","internalType":"uint256"},{"name":"creatureId","type":"uint256","internalType":"uint256"}],"outputs":[{"name":"","type":"tuple","internalType":"struct CreatureLib.Creature","components":[{"name":"id","type":"uint256","internalType":"uint256"},{"name":"owner","type":"address","internalType":"address"},{"name":"speed","type":"uint8","internalType":"uint8"},{"name":"strength","type":"uint8","internalType":"uint8"},{"name":"intelligence","type":"uint8","internalType":"uint8"},{"name":"aggression","type":"uint8","internalType":"uint8"},{"name":"reproRate","type":"uint8","internalType":"uint8"},{"name":"defense","type":"uint8","internalType":"uint8"},{"name":"energy","type":"uint16","internalType":"uint16"},{"name":"hp","type":"uint16","internalType":"uint16"},{"name":"x","type":"uint8","internalType":"uint8"},{"name":"y","type":"uint8","internalType":"uint8"},{"name":"generation","type":"uint32","internalType":"uint32"},{"name":"alive","type":"bool","internalType":"bool"},{"name":"genome","type":"bytes32","internalType":"bytes32"}]}],"stateMutability":"view"},{"type":"function","name":"getCreatureIds","inputs":[{"name":"arenaId","type":"uint256","internalType":"uint256"}],"outputs":[{"name":"","type":"uint256[]","internalType":"uint256[]"}],"stateMutability":"view"},{"type":"function","name":"hasJoined","inputs":[{"name":"","type":"uint256","internalType":"uint256"},{"name":"","type":"address","internalType":"address"}],"outputs":[{"name":"","type":"bool","internalType":"bool"}],"stateMutability":"view"},{"type":"function","name":"joinArena","inputs":[{"name":"arenaId","type":"uint256","internalType":"uint256"}],"outputs":[],"stateMutability":"payable"},{"type":"function","name":"nextArenaId","inputs":[],"outputs":[{"name":"","type":"uint256","internalType":"uint256"}],"stateMutability":"view"},{"type":"function","name":"nextCreatureId","inputs":[],"outputs":[{"name":"","type":"uint256","internalType":"uint256"}],"stateMutability":"view"},{"type":"function","name":"owner","inputs":[],"outputs":[{"name":"","type":"address","internalType":"address"}],"stateMutability":"view"},{"type":"function","name":"pause","inputs":[],"outputs":[],"stateMutability":"nonpayable"},{"type":"function","name":"paused","inputs":[],"outputs":[{"name":"","type":"bool","internalType":"bool"}],"stateMutability":"view"},{"type":"function","name":"pendingRewards","inputs":[{"name":"","type":"uint256","internalType":"uint256"},{"name":"","type":"address","internalType":"address"}],"outputs":[{"name":"","type":"uint256","internalType":"uint256"}],"stateMutability":"view"},{"type":"function","name":"processedIndex","inputs":[{"name":"","type":"uint256","internalType":"uint256"}],"outputs":[{"name":"","type":"uint256","internalType":"uint256"}],"stateMutability":"view"},{"type":"function","name":"renounceOwnership","inputs":[],"outputs":[],"stateMutability":"nonpayable"},{"type":"function","name":"rewardsDistributed","inputs":[{"name":"","type":"uint256","internalType":"uint256"}],"outputs":[{"name":"","type":"bool","internalType":"bool"}],"stateMutability":"view"},{"type":"function","name":"runEvolutionRound","inputs":[{"name":"arenaId","type":"uint256","internalType":"uint256"}],"outputs":[],"stateMutability":"nonpayable"},{"type":"function","name":"setFeeRecipient","inputs":[{"name":"_feeRecipient","type":"address","internalType":"address"}],"outputs":[],"stateMutability":"nonpayable"},{"type":"function","name":"startArena","inputs":[{"name":"arenaId","type":"uint256","internalType":"uint256"}],"outputs":[],"stateMutability":"nonpayable"},{"type":"function","name":"transferOwnership","inputs":[{"name":"newOwner","type":"address","internalType":"address"}],"outputs":[],"stateMutability":"nonpayable"},{"type":"function","name":"triggerDisaster","inputs":[{"name":"arenaId","type":"uint256","internalType":"uint256"},{"name":"disasterType","type":"uint8","internalType":"uint8"}],"outputs":[],"stateMutability":"nonpayable"},{"type":"function","name":"unpause","inputs":[],"outputs":[],"stateMutability":"nonpayable"},{"type":"event","name":"ArenaCreated","inputs":[{"name":"arenaId","type":"uint256","indexed":true,"internalType":"uint256"},{"name":"creator","type":"address","indexed":false,"internalType":"address"}],"anonymous":false},{"type":"event","name":"ArenaStarted","inputs":[{"name":"arenaId","type":"uint256","indexed":true,"internalType":"uint256"}],"anonymous":false},{"type":"event","name":"BreedingOccurred","inputs":[{"name":"arenaId","type":"uint256","indexed":true,"internalType":"uint256"},{"name":"parent1","type":"uint256","indexed":false,"internalType":"uint256"},{"name":"parent2","type":"uint256","indexed":false,"internalType":"uint256"},{"name":"child","type":"uint256","indexed":false,"internalType":"uint256"}],"anonymous":false},{"type":"event","name":"BreedingOccurred","inputs":[{"name":"arenaId","type":"uint256","indexed":true,"internalType":"uint256"},{"name":"parent1","type":"uint256","indexed":false,"internalType":"uint256"},{"name":"parent2","type":"uint256","indexed":false,"internalType":"uint256"},{"name":"child","type":"uint256","indexed":false,"internalType":"uint256"}],"anonymous":false},{"type":"event","name":"CombatOccurred","inputs":[{"name":"arenaId","type":"uint256","indexed":true,"internalType":"uint256"},{"name":"attacker","type":"uint256","indexed":false,"internalType":"uint256"},{"name":"defender","type":"uint256","indexed":false,"internalType":"uint256"},{"name":"attackerWon","type":"bool","indexed":false,"internalType":"bool"}],"anonymous":false},{"type":"event","name":"CombatOccurred","inputs":[{"name":"arenaId","type":"uint256","indexed":true,"internalType":"uint256"},{"name":"attacker","type":"uint256","indexed":false,"internalType":"uint256"},{"name":"defender","type":"uint256","indexed":false,"internalType":"uint256"},{"name":"attackerWon","type":"bool","indexed":false,"internalType":"bool"}],"anonymous":false},{"type":"event","name":"CreatureBorn","inputs":[{"name":"arenaId","type":"uint256","indexed":true,"internalType":"uint256"},{"name":"creatureId","type":"uint256","indexed":false,"internalType":"uint256"},{"name":"owner","type":"address","indexed":false,"internalType":"address"},{"name":"genome","type":"bytes32","indexed":false,"internalType":"bytes32"}],"anonymous":false},{"type":"event","name":"CreatureBorn","inputs":[{"name":"arenaId","type":"uint256","indexed":true,"internalType":"uint256"},{"name":"creatureId","type":"uint256","indexed":false,"internalType":"uint256"},{"name":"owner","type":"address","indexed":false,"internalType":"address"},{"name":"genome","type":"bytes32","indexed":false,"internalType":"bytes32"}],"anonymous":false},{"type":"event","name":"CreatureDied","inputs":[{"name":"arenaId","type":"uint256","indexed":true,"internalType":"uint256"},{"name":"creatureId","type":"uint256","indexed":false,"internalType":"uint256"}],"anonymous":false},{"type":"event","name":"CreatureDied","inputs":[{"name":"arenaId","type":"uint256","indexed":true,"internalType":"uint256"},{"name":"creatureId","type":"uint256","indexed":false,"internalType":"uint256"}],"anonymous":false},{"type":"event","name":"DisasterTriggered","inputs":[{"name":"arenaId","type":"uint256","indexed":true,"internalType":"uint256"},{"name":"disasterType","type":"uint8","indexed":false,"internalType":"uint8"}],"anonymous":false},{"type":"event","name":"EmergencyWithdraw","inputs":[{"name":"arenaId","type":"uint256","indexed":true,"internalType":"uint256"},{"name":"recipient","type":"address","indexed":false,"internalType":"address"},{"name":"amount","type":"uint256","indexed":false,"internalType":"uint256"}],"anonymous":false},{"type":"event","name":"OwnershipTransferred","inputs":[{"name":"previousOwner","type":"address","indexed":true,"internalType":"address"},{"name":"newOwner","type":"address","indexed":true,"internalType":"address"}],"anonymous":false},{"type":"event","name":"Paused","inputs":[{"name":"account","type":"address","indexed":false,"internalType":"address"}],"anonymous":false},{"type":"event","name":"PlayerJoined","inputs":[{"name":"arenaId","type":"uint256","indexed":true,"internalType":"uint256"},{"name":"player","type":"address","indexed":false,"internalType":"address"}],"anonymous":false},{"type":"event","name":"ProtocolFeeCollected","inputs":[{"name":"arenaId","type":"uint256","indexed":true,"internalType":"uint256"},{"name":"amount","type":"uint256","indexed":false,"internalType":"uint256"}],"anonymous":false},{"type":"event","name":"RewardClaimed","inputs":[{"name":"arenaId","type":"uint256","indexed":true,"internalType":"uint256"},{"name":"player","type":"address","indexed":false,"internalType":"address"},{"name":"amount","type":"uint256","indexed":false,"internalType":"uint256"}],"anonymous":false},{"type":"event","name":"RoundExecuted","inputs":[{"name":"arenaId","type":"uint256","indexed":true,"internalType":"uint256"},{"name":"round","type":"uint256","indexed":false,"internalType":"uint256"},{"name":"survivors","type":"uint256","indexed":false,"internalType":"uint256"}],"anonymous":false},{"type":"event","name":"RoundPartial","inputs":[{"name":"arenaId","type":"uint256","indexed":true,"internalType":"uint256"},{"name":"round","type":"uint256","indexed":false,"internalType":"uint256"},{"name":"processed","type":"uint256","indexed":false,"internalType":"uint256"}],"anonymous":false},{"type":"event","name":"Unpaused","inputs":[{"name":"account","type":"address","indexed":false,"internalType":"address"}],"anonymous":false},{"type":"error","name":"EnforcedPause","inputs":[]},{"type":"error","name":"ExpectedPause","inputs":[]},{"type":"error","name":"OwnableInvalidOwner","inputs":[{"name":"owner","type":"address","internalType":"address"}]},{"type":"error","name":"OwnableUnauthorizedAccount","inputs":[{"name":"account","type":"address","internalType":"address"}]},{"type":"error","name":"ReentrancyGuardReentrantCall","inputs":[]}],"bytecode":{"object":"0x6080806040523460b35760017f9b779b17422d0df92223018b32b4d1fa46e071723d6817e2486d003becc55f00553315609d5760008054336001600160a01b0319821681178355916001600160a01b03909116907f8be0079c531659141344cd1fd0a4f28419497f9722a3daafe3b4186f6b6457e09080a36001808055600255600f80546001600160a01b0319163317905561432290816100b98239f35b631e4fbdf760e01b600052600060045260246000fd5b600080fdfe610200604052600436101561001357600080fd5b60003560e01c80630aa27d871461225357806318a4d048146122085780631a8425b4146120a857806323b530fb1461205e578063276c270214611f2f5780633ac0439114611e465780633f4ba83a14611dd557806345a6e48414611da95780634690484014611d805780634f6d67a3146119055780635312ea8e146117e457806359974e38146113c65780635c975abb146113a05780635e1466bf146112fd5780636074e0d6146110fa57806368194719146110ad578063715018a61461105457806382944e2d14611036578063839cab65146110185780638456cb5914610fb657806384f4319c14610f0f5780638da5cb5b14610ee65780638e21ff7b14610eba578063a3b5fcd814610e89578063ae169a5014610d7a578063b1fb640514610d4b578063b346e43214610d1f578063b506c16314610b95578063be37822814610b79578063cf8753b214610b5b578063d18df53c14610b13578063dfc1075114610a67578063e74b981b146109e8578063ee79cc18146109b0578063f2fde38b14610927578063f6b3a00a1461031c5763fa8f2ac0146101b457600080fd5b34610317576020366003190112610317576004358060005260056020526040600020906040518083602082955493848152019060005260206000209260005b8181106102fe57505061020892500383612415565b81519161021483612639565b926102226040519485612415565b808452610231601f1991612639565b0160005b8181106102e757505060005b81518110156102955760019083600052600460205260406000206102658285612683565b5160005260205261027960406000206124a5565b6102838287612683565b5261028e8186612683565b5001610241565b8360405180916020820160208352815180915260206040840192019060005b8181106102c2575050500390f35b9193509160206101e0826102d960019488516122d7565b0194019101918493926102b4565b6020906102f2612437565b82828801015201610235565b84548352600194850194879450602090930192016101f3565b600080fd5b602036600319011261031757610330612707565b6103386126e7565b6004356000526003602052604060002061036260ff60018301541661035c816123a5565b156126a6565b600281015434036108e957600435600090815260086020908152604080832033845290915290205460ff166108b35760043560008181526008602090815260408083203384528252808320805460ff1916600117905592825260079052208054600160401b81101561089d576103dd916001820181556122a9565b81549060031b9033821b9160018060a01b03901b1916179055600435600052600660205260406000206104108154612697565b905560038101610421348254612571565b905560070160005b815481101561085b5760019060025461044181612697565b6002557f7ac4cf8a3a3f8ad7d36eed06dd066636472ad080f681cb40a48ff307feb1558361082661049a6040514460208201524360408201523360608201528460808201526080815261049560a082612415565b613eae565b600481901a60036101c0866107a8600286901a86851a600188901a600589901a60008a901a600a8110156108535750600a9384925b600a60ff8216101561084d5750600a905b600a60ff821610156108475750600a935b600a60ff821610156108415750600a995b600a60ff8216101561083b5750600a915b8b838c8785600a60ff8716101561082f576105339550600a988995613f74565b9a60ff6105d56105bc8261058b61057260405187602082015260408082015260016060820152600b60fb1b60808201526080815261049560a082612415565b6004356000528f6020526006604060002001549061257e565b169360405190602082015260408082015260016060820152605960f81b60808201526080815261049560a082612415565b6004356000528c6020526006604060002001549061257e565b1690604051986105e48a6123f8565b89523360208a015260ff60408a019716875260ff60608a019316835260ff60808a019616865260ff60a08a019c168c5260ff60c08a019416845260ff60e08a019516855260646101008a015260646101208a01526101408901526101608801528f6101808801528f6101a08801528a8888015260043560005260046020528d60406000209060005260205260406000209987518b5560018b019560018060a01b0360018060a01b0360208b015116166001600160601b0360a01b885416178755519186549060ff60a81b905160a81b169560ff60b01b905160b01b169160ff60b81b905160b81b169360ff60c01b905160c01b169460ff60c81b905160c81b169560ff60c81b199360ff60c01b199260ff60b81b199160ff60a01b9060a01b169062ffffff60a01b1916171617161716171717815561074461ffff61010085015116829081549061ffff60d01b9060d01b169061ffff60d01b1916179055565b610120830151815461ffff60e01b191660e09190911b61ffff60e01b16178155610140830151815460ff60f01b191660f09190911b60ff60f01b1617815561016083015181546001600160f81b031660f89190911b6001600160f81b031916179055565b6107ea6002850163ffffffff6101808401511663ffffffff198254161781556101a0830151151560ff60201b825491151560201b169060ff60201b1916179055565b01519101556004356000526005602052610808846040600020612ce2565b60408051948552336020860152840152600435929081906060820190565b0390a201610429565b61053395988995613f74565b91610513565b99610502565b936104f1565b906104e0565b9384926104cf565b6040513381527f87969bc7faf902221a147b95ceba76e011c5efb0339a0a8ee7a2bb82d9cfbbd6602060043592a260016000805160206142cd83398151915255005b634e487b7160e01b600052604160045260246000fd5b60405162461bcd60e51b815260206004820152600e60248201526d105b1c9958591e481a9bda5b995960921b6044820152606490fd5b60405162461bcd60e51b8152602060048201526016602482015275125b98dbdc9c9958dd081cdd185ad948185b5bdd5b9d60521b6044820152606490fd5b34610317576020366003190112610317576109406123c5565b610948612b82565b6001600160a01b0316801561099a57600080546001600160a01b03198116831782556001600160a01b0316907f8be0079c531659141344cd1fd0a4f28419497f9722a3daafe3b4186f6b6457e09080a3005b631e4fbdf760e01b600052600060045260246000fd5b34610317576109be36612293565b90600052600b602052604060002090600052602052602060ff604060002054166040519015158152f35b3461031757602036600319011261031757610a016123c5565b610a09612b82565b6001600160a01b03168015610a30576001600160601b0360a01b600f541617600f55600080f35b60405162461bcd60e51b815260206004820152600f60248201526e496e76616c6964206164647265737360881b6044820152606490fd5b3461031757602036600319011261031757600435600052600560205260406000206040518060208354918281520190819360005260206000209060005b818110610afd5750505081610aba910382612415565b6040519182916020830190602084525180915260408301919060005b818110610ae4575050500390f35b8251845285945060209384019390920191600101610ad6565b8254845260209093019260019283019201610aa4565b3461031757604036600319011261031757610b2c6123af565b600435600052600c60205260406000209060018060a01b03166000526020526020604060002054604051908152f35b34610317576000366003190112610317576020600154604051908152f35b3461031757600036600319011261031757602060405160c88152f35b3461031757602036600319011261031757600435806000526003602052604060002090600182018054610bce60ff821661035c816123a5565b826000526006602052600260406000205410610cda576000838152600760205260408120805415610cc65781526020902054600094906001600160a01b031633148015610cb3575b15610c6e57610c4792600160069360ff19161790554360098201550154600a610c4043928061261c565b0483612bab565b7fbe09ad21ad3fc23ae505a4badead1958018bfcb0f57d0785de620f4bb265025f8280a280f35b60405162461bcd60e51b815260206004820152601760248201527f4e6f7420617574686f72697a656420746f2073746172740000000000000000006044820152606490fd5b5084546001600160a01b03163314610c16565b634e487b7160e01b82526032600452602482fd5b60405162461bcd60e51b815260206004820152601760248201527f4e656564206174206c65617374203220706c61796572730000000000000000006044820152606490fd5b3461031757602036600319011261031757600435600052600e6020526020604060002054604051908152f35b34610317576020366003190112610317576004356000526009602052602060ff60406000205416604051908152f35b3461031757602036600319011261031757600435610d96612707565b610d9e6126e7565b6000818152600c602090815260408083203384529091529020548015610e5057610e397f24b5efa61dd1cfc659205a97fb8ed868f3cb8c81922bab2b96423e5de1de2cb79183600052600c602052604060002060018060a01b03331660005260205260006040812055610e21600080808085335af1610e1b61259e565b506125de565b60408051338152602081019290925290918291820190565b0390a260016000805160206142cd83398151915255005b60405162461bcd60e51b8152602060048201526011602482015270139bc81c195b991a5b99c81c995dd85c99607a1b6044820152606490fd5b3461031757602036600319011261031757600435600052600d602052602060ff604060002054166040519015158152f35b3461031757602036600319011261031757600435600052600a6020526020604060002054604051908152f35b34610317576000366003190112610317576000546040516001600160a01b039091168152602090f35b34610317576020366003190112610317576004356000526003602052610160604060002080549060ff600182015416906002810154600382015460048301546005840154600685015491600786015493600887015495600a6009890154980154986040519a8b52610f7f816123a5565b60208b015260408a01526060890152608088015260a087015260c086015260e0850152610100840152610120830152610140820152f35b3461031757600036600319011261031757610fcf612b82565b610fd76126e7565b6000805460ff60a01b1916600160a01b1790556040513381527f62e78cea01bee320cd4e420270b5ea74000d11b0c9f74754ebdbfc544b05a25890602090a1005b34610317576000366003190112610317576020600254604051908152f35b3461031757600036600319011261031757602060405162093a808152f35b346103175760003660031901126103175761106d612b82565b600080546001600160a01b0319811682556001600160a01b03167f8be0079c531659141344cd1fd0a4f28419497f9722a3daafe3b4186f6b6457e08280a3005b34610317576040366003190112610317576110c66123af565b600435600052600860205260406000209060018060a01b0316600052602052602060ff604060002054166040519015158152f35b346103175760c03660031901126103175760643560443560243560843561111f6126e7565b811515806112f1575b156112b857600a831015806112ad575b15611275578315158061126a575b156112255761271081116111e9576020936001549361116485612697565b60015584600052600386526040600020938585556001850160ff19815416905560043560028601556005850155600684015560078301556008820155600a60a43591015580600052600e825242604060002055807f79030c5ef35047079a2bf10d4cb298a0909aa626b8da6a8c770ee0926b07565883604051338152a2604051908152f35b60405162461bcd60e51b8152602060048201526014602482015273496e76616c6964206d75746174696f6e5261746560601b6044820152606490fd5b60405162461bcd60e51b815260206004820152601760248201527f496e76616c69642063726561747572657320636f756e740000000000000000006044820152606490fd5b50600a841115611146565b60405162461bcd60e51b815260206004820152601060248201526f496e76616c6964206772696453697a6560801b6044820152606490fd5b506064831115611138565b60405162461bcd60e51b8152602060048201526011602482015270496e76616c6964206d6178526f756e647360781b6044820152606490fd5b506103e8821115611128565b34610317576020366003190112610317576004356113196126e7565b611321612707565b806000526003602052600260ff60016040600020015416611341816123a5565b036113635761134f90612743565b60016000805160206142cd83398151915255005b60405162461bcd60e51b81526020600482015260156024820152744e6f7420696e2045564f4c56494e4720737461746560581b6044820152606490fd5b3461031757600036600319011261031757602060ff60005460a01c166040519015158152f35b34610317576020366003190112610317576004356113e2612707565b8060005260036020526040600020600360ff600183015416611403816123a5565b036117aa5781600052600d60205260ff604060002054166117655760039082600052600d6020526040600020600160ff1982541617905501549060c8820282810460c8148315171561174f5761271090049182810390811161174f578160005260076020526040600020918060005260066020526040600020548160005260056020526040600020936040518086602082985493848152019060005260206000209260005b8181106117365750506114bd92500386612415565b6000946114c983612651565b9360005b82518110156115915781600052600460205260406000206114ee8285612683565b51600052602052604060002060ff600282015460201c16611513575b506001016114cd565b9761151d90612697565b6001909801546001600160a01b031660005b86811061153d575b5061150a565b8161154882886122a9565b905460039190911b1c6001600160a01b0316146115675760010161152f565b600192915061158961158261157c838b612683565b51612697565b9189612683565b52908a611537565b509487949092915086156116a05760005b8481106116205750505050507f8b33e5d3f2111dbe0069093632772b6795dfdaa7282cb1d39582c0ca4127edbb9192506020905b6000848152600c83526040808220600f546001600160a01b03168352845290208054611603908390612571565b9055604051908152a260016000805160206142cd83398151915255005b8061162d60019284612683565b51611639575b016115a2565b6116568961165161164a8487612683565b518861261c565b61262f565b88600052600c60205261169960408060002061167285896122a9565b878060a01b0391549060031b1c1690600091878060a01b0316825260205220918254612571565b9055611633565b509180939495506116b09161262f565b9060005b8381106116e8575050505060207f8b33e5d3f2111dbe0069093632772b6795dfdaa7282cb1d39582c0ca4127edbb916115d6565b60019086600052600c60205260408060002061170483866122a9565b858060a01b0391549060031b1c1690600091858060a01b031682526020522061172e858254612571565b9055016116b4565b845483526001948501948a9450602090930192016114a8565b634e487b7160e01b600052601160045260246000fd5b60405162461bcd60e51b815260206004820152601b60248201527f5265776172647320616c726561647920646973747269627574656400000000006044820152606490fd5b60405162461bcd60e51b8152602060048201526012602482015271105c995b98481b9bdd08199a5b9a5cda195960721b6044820152606490fd5b3461031757602036600319011261031757600435611800612b82565b80600052600e60205260406000205462093a80810180911161174f5742106118d457806000526003602052604060002060018101908154600360ff8216611846816123a5565b1461189c577f947a9dc0c5e62cc9756634ec0a89afea37eb0305933925040b9bda82004400209260038061189794019260008454945560ff1916179055610e21600080808085335af1610e1b61259e565b0390a2005b60405162461bcd60e51b815260206004820152601060248201526f105b1c9958591e48199a5b9a5cda195960821b6044820152606490fd5b60405162461bcd60e51b8152602060048201526009602482015268546f6f206561726c7960b81b6044820152606490fd5b346103175760403660031901126103175760043560243560ff81168091036103175761192f612707565b6119376126e7565b816000526003602052604060002060ff600182015416611956816123a5565b60018114908115611d6c575b5015611d3a57600401548015611d055760059006611ccc5780611aaa57816000526005602052604060002080549060005b8281106119cc575b505050602060008051602061426d833981519152915b604051908152a260016000805160206142cd83398151915255005b61c3505a10611aa55760019085600052600460205260406000206119f082856122a9565b90549060031b1c600052602052856040600020600281019081549060ff8260201c1615611a9c575485611a5e604051446020820152436040820152836060820152608080820152600860a0820152671054d5115493d25160c21b60c082015260c0815261049560e082612415565b1615611a70575b505050505b01611993565b60008051602061428d8339815191529260209260ff60201b19169055604051908152a285878080611a65565b50505050611a6a565b61199b565b60018103611b8b57816000526005602052604060002080549060005b828110611ae8575b505050602060008051602061426d833981519152916119b1565b61c3505a10611b86576001908560005260046020526040600020611b0c82856122a9565b90549060031b1c600052602052856040600020600281019081549060ff8260201c1615611b7d57603260ff8783015460c81c1610611b50575b505050505b01611ac6565b60008051602061428d8339815191529260209260ff60201b1916905554604051908152a285878080611b45565b50505050611b4a565b611ace565b60028103611c3857816000526005602052604060002080549060005b828110611bc857505050602060008051602061426d833981519152916119b1565b61c3505a10611b86576001908560005260046020526040600020611bec82856122a9565b90549060031b1c600052602052604060002060ff600282015460201c1615611c325782018054600281901c613fff60d01b1661ffff60d01b199091161790555b01611ba7565b50611c2c565b60038103611c9457816000526003602052600860406000200180549160058302928084046005149015171561174f5760008051602061426d833981519152926020926127108211611c8a575b556119b1565b6127109150611c84565b60405162461bcd60e51b815260206004820152601060248201526f2ab735b737bbb7103234b9b0b9ba32b960811b6044820152606490fd5b60405162461bcd60e51b81526020600482015260116024820152702234b9b0b9ba32b91031b7b7b63237bbb760791b6044820152606490fd5b60405162461bcd60e51b815260206004820152600d60248201526c139bc81c9bdd5b991cc81e595d609a1b6044820152606490fd5b60405162461bcd60e51b815260206004820152600a6024820152694e6f742061637469766560b01b6044820152606490fd5b60029150611d79816123a5565b1484611962565b3461031757600036600319011261031757600f546040516001600160a01b039091168152602090f35b346103175760203660031901126103175760043560005260066020526020604060002054604051908152f35b3461031757600036600319011261031757611dee612b82565b60005460ff8160a01c1615611e355760ff60a01b19166000556040513381527f5db9ee0a495bf2e6ff9c91a7834c1ba4fdd244a5e8aa4e537bd38aeae4b073aa90602090a1005b638dfc202b60e01b60005260046000fd5b3461031757611e5436612293565b9060005260046020526040600020906000526020526101e0604060002080549060ff600182015491600360028201549101549260405194855260018060a01b0381166020860152828160a01c166040860152828160a81c166060860152828160b01c166080860152828160b81c1660a0860152828160c01c1660c0860152828160c81c1660e086015261ffff8160d01c1661010086015261ffff8160e01c16610120860152828160f01c1661014086015260f81c61016085015263ffffffff811661018085015260201c1615156101a08301526101c0820152f35b3461031757602036600319011261031757600435611f4b6126e7565b611f53612707565b60406000828152600360205220906001820191600160ff845416611f76816123a5565b036120235780600a6009611f8f93015491015490612571565b4310611fe85761134f91600260ff198254161790558060005260096020526040600020600160ff1982541617905580600052600a60205260006040812055612743565b634e487b7160e01b600052602160045260246000fd5b60405162461bcd60e51b8152602060048201526013602482015272546f6f20736f6f6e20746f206578656375746560681b6044820152606490fd5b60405162461bcd60e51b81526020600482015260136024820152724e6f7420696e2041435449564520737461746560681b6044820152606490fd5b346103175761206c36612293565b906000526007602052604060002080548210156103175760209161208f916122a9565b905460405160039290921b1c6001600160a01b03168152f35b346103175760203660031901126103175760006101406040516120ca816123db565b8281528260208201528260408201528260608201528260808201528260a08201528260c08201528260e0820152826101008201528261012082015201526004356000526003602052610160604060002060405190612127826123db565b8054825260ff600182015416906020830191612142816123a5565b8252600281015460408401908152600382015460608501908152600483015460808601908152600584015460a0870190815260068501549160c0880192835260078601549360e089019485526008870154956101008a01968752600a6009890154986101208c01998a520154986101408b01998a526040519a518b52516121c8816123a5565b60208b01525160408a01525160608901525160808801525160a08701525160c08601525160e0850152516101008401525161012083015251610140820152f35b346103175761221636612293565b9061221f612437565b5060005260046020526040600020906000526020526101e061224460406000206124a5565b61225160405180926122d7565bf35b346103175761226136612293565b9060005260056020526040600020805482101561031757602091612284916122a9565b90549060031b1c604051908152f35b6040906003190112610317576004359060243590565b80548210156122c15760005260206000200190600090565b634e487b7160e01b600052603260045260246000fd5b6101c080918051845260018060a01b03602082015116602085015260ff604082015116604085015260ff606082015116606085015260ff608082015116608085015260ff60a08201511660a085015260ff60c08201511660c085015260ff60e08201511660e085015261ffff6101008201511661010085015261ffff6101208201511661012085015260ff6101408201511661014085015260ff6101608201511661016085015263ffffffff610180820151166101808501526101a081015115156101a08501520151910152565b60041115611fd257565b602435906001600160a01b038216820361031757565b600435906001600160a01b038216820361031757565b610160810190811067ffffffffffffffff82111761089d57604052565b6101e0810190811067ffffffffffffffff82111761089d57604052565b90601f8019910116810190811067ffffffffffffffff82111761089d57604052565b60405190612444826123f8565b60006101c0838281528260208201528260408201528260608201528260808201528260a08201528260c08201528260e08201528261010082015282610120820152826101408201528261016082015282610180820152826101a08201520152565b906040516124b2816123f8565b6101c06003829480548452600181015460018060a01b038116602086015260ff8160a01c16604086015260ff8160a81c16606086015260ff8160b01c16608086015260ff8160b81c1660a086015260ff8160c01c1660c086015260ff8160c81c1660e086015261ffff8160d01c1661010086015261ffff8160e01c1661012086015260ff8160f01c1661014086015260f81c61016085015260ff600282015463ffffffff811661018087015260201c1615156101a08501520154910152565b9190820180921161174f57565b8115612588570690565b634e487b7160e01b600052601260045260246000fd5b3d156125d9573d9067ffffffffffffffff821161089d57604051916125cd601f8201601f191660200184612415565b82523d6000602084013e565b606090565b156125e557565b60405162461bcd60e51b815260206004820152600f60248201526e151c985b9cd9995c8819985a5b1959608a1b6044820152606490fd5b8181029291811591840414171561174f57565b8115612588570490565b67ffffffffffffffff811161089d5760051b60200190565b9061265b82612639565b6126686040519182612415565b8281528092612679601f1991612639565b0190602036910137565b80518210156122c15760209160051b010190565b600019811461174f5760010190565b156126ad57565b60405162461bcd60e51b81526020600482015260126024820152714e6f7420696e204c4f42425920737461746560701b6044820152606490fd5b60ff60005460a01c166126f657565b63d93c066560e01b60005260046000fd5b60026000805160206142cd83398151915254146127325760026000805160206142cd83398151915255565b633ee5aeb560e01b60005260046000fd5b806000526003602052604060002081600052600960205260ff604060002054169082600052600a602052604060002054836000526004602052604060002090846000526005602052604060002060018514612b24575b600260ff861614612b08575b600360ff861614612a85575b600460ff8616146129fd575b600560ff8616146127d1575b505050505050565b6127da92613cbe565b806129af575050508060005260036020526040600020600481016127fe8154612697565b8155436009830155826000526009602052604060002060ff19815416905582600052600a60205260006040812055612849601461283f60068501548061261c565b0482549085612bab565b6000838152600560205260408120805491939184918290815b83811061291157505050509160017f424026fe77074faf790196d0ae1e8e9bba0dc04570273f2a1fcc4d4367a502ea94926040948354600583015411908115916128f9575b50156128d25701805460ff191660031790555b549082519182526020820152a23880808080806127c9565b836128e85701805460ff191660031790556128ba565b01805460ff191660011790556128ba565b90501580612908575b386128a7565b50831515612902565b886000526004602052604060002061292982846122a9565b90549060031b1c600052602052604060002060ff600282015460201c16612954575b50600101612862565b90929761296090612697565b976001600160a01b038116806129895750506001908101546001600160a01b0316925b9061294b565b9093916001808060a01b0391015416036129a6575b600190612983565b6001945061299e565b60046040926000805160206142ad8339815191529486600052600960205260ff85600020911660ff1982541617905585600052600a60205282846000205501549082519182526020820152a2565b9390612a199060088501546006860154906002549288876134b2565b60025580918115600014612a315750506005936127bd565b6000805160206142ad83398151915295506040949193506004925086600052600960205260ff85600020911660ff1982541617905585600052600a60205282846000205501549082519182526020820152a2565b9390612aa69086600052600b60205260406000206006860154908786613322565b9081612ab557506004936127b1565b6000805160206142ad833981519152945060049192509260409386600052600960205260ff85600020911660ff1982541617905585600052600a60205282846000205501549082519182526020820152a2565b9390612b15908584613019565b9081612ab557506003936127a5565b9350612b3d600684015460048501928354918786612d42565b9081612b4c5750600293612799565b9091506000805160206142ad83398151915293506040925084600052600a602052818360002055549082519182526020820152a2565b6000546001600160a01b03163303612b9657565b63118cdaa760e01b6000523360045260246000fd5b92919091836000526003602052600660406000200154938415612cdb5780600052600b60205260406000209260009283958060011b9080820460021481151715612cc757965b87861080612cbe575b15612cb357612c61612c356040514460208201524360408201528760608201528660808201528360a082015260a0815261049560c082612415565b612c5c8b612c5681612c5181612c4b818861257e565b9661262f565b61257e565b9261261c565b612571565b806000528760205260ff6040600020541615612c87575b50612c8290612697565b612bf1565b612c829196612cac91600052886020526040600020600160ff19825416179055612697565b9590612c78565b505095505050505050565b50818110612bfa565b634e487b7160e01b86526011600452602486fd5b5092505050565b8054600160401b81101561089d57612cff916001820181556122a9565b819291549060031b91821b91600019901b1916179055565b61ffff6031199116019061ffff821161174f57565b9061ffff8091169116039061ffff821161174f57565b8154929492939160005b858410612d5f5750505050505050600090565b60148110801590612ff8575b612fee57612d7984836122a9565b90549060031b1c6000528260205260406000209060ff600283015460201c1615612fe457600182019081549260ff600a818660a01c160416938415612fdb575b61ffff8581169160d01c16811015612fc257612e2b610495600393612e08612dec612e399561ffff8a5460d01c16612d2c565b885461ffff60d01b191660d09190911b61ffff60d01b16178855565b546040519283918d44602085016040919493926060820195825260208201520152565b03601f198101835282612415565b1691805460ff8160f01c169060f81c916000198c01928c841161174f57600196612ec596612ec09560ff169080158080612fb1575b15612ece57505050612e9d9160ff8092160116925b825460ff60f01b191660f09190911b60ff60f01b16178255565b80546001600160f81b031660f89290921b6001600160f81b031916919091179055565b612697565b935b0192612d4c565b91929115612ee3575050612e9d915092612e83565b909190808a148080612fa4575b15612f0a57505050612e9d9160ff80921690031692612e83565b15612f1e5750505050612e9d600092612e83565b929492600281148080612f93575b15612f4457505050612e9d9160ff8092160116612e83565b91929115612f58575050612e9d9150612e83565b60039192501480612f86575b15612f7a57612e9d9160ff809216900316612e83565b5050612e9d6000612e83565b5060ff8116821015612f64565b508260ff8086168701161115612f2c565b5060ff8416851015612ef0565b508260ff8086168701161115612e6e565b5050815461ffff60d01b19169091559360019150612ec7565b60019450612db9565b9360019150612ec7565b5050509250505090565b5061c3505a10612d6b565b9061ffff8091169116019061ffff821161174f57565b91815460009061302881612639565b926130366040519485612415565b818452601f1961304583612639565b01366020860137915b81831061306057505050505050600090565b60148110801590613317575b61330e5761307a83866122a9565b90549060031b1c60005285602052604060002060ff600282015460201c161580156132fb575b6132f1576001840180851161174f579060018101915b8481106130d5575b5050506130cc600191612697565b925b019161304e565b6130df8188612683565b516132e9576130ee81896122a9565b90549060031b1c6000528860205260406000209260ff600285015460201c16156132df57805491888860018701549360ff8560f01c1660ff8760f01c16148015906132cf575b6132be57509460009460ff807f18141183b48d8d43b700058fe44862fe10ab25fa4292a12152680927287cf2ff96600161318460609888839f9d6130cc9f9a859161317e91612683565b52612683565b5260b81c169160b81c16101585146132b8575b8781019060ff825460a81c169189840192835490617fff60ff8360c81c168d1c1661ffff811682118a146132b0576131ce91612d2c565b61ffff899260e01c1661ffff82168111158a1461327d575050506132449061ffff60e01b1984541684556002850160ff60201b198154169055613228617fff61ffff8d965460d01c16861c1661ffff835460d01c16613003565b815461ffff60d01b191660d09190911b61ffff60d01b16179055565b8560008051602061428d83398151915260208554604051908152a25b549154604051928352602083015215156040820152a291386130be565b6132ab93509061328f91959295612d2c565b815461ffff60e01b191660e09190911b61ffff60e01b16179055565b613260565b50508a6131ce565b90613197565b965050509050600191505b016130b6565b508460f81c8660f81c1415613134565b92506001906132c9565b6001906132c9565b50916001906130ce565b506133068486612683565b5115156130a0565b50509250505090565b5061c3505a1061306c565b9293909384549360005b85841061333f5750505050505050600090565b60148110801590613456575b612fee5761335984886122a9565b90549060031b1c60005281602052604060002060ff600282015460201c161561344c57600191826133c192016133a4815461339a8860ff8360f01c1661261c565b9060f81c90612571565b806000528860205260ff604060002054166133ca575b5050612697565b935b019261332c565b60005287602052604060002060ff1981541690558054600560ff8260b01c16049061ffff821615613444575b61ffff9060d01c166101f461ffff61340e8484613003565b161115613431575050805461ffff60d01b1916607d60d21b1790555b38806133ba565b61343f929161322891613003565b61342a565b8591506133f6565b50926001906133c3565b5061c3505a1061334b565b60ff6000199116019060ff821161174f57565b9060ff8091169116039060ff821161174f57565b60ff60019116019060ff821161174f57565b63ffffffff60019116019063ffffffff821161174f57565b6101805261010081905261016092909252610140839052905460e052600060a052919291906134e1908061261c565b60011c6101a0526101c0525b60e0516101c051106134ff5760009190565b601460a05110801590613cb3575b613cab576101a05161010051541015613ca5576135306101c051610100516122a9565b90549060031b1c60005261018051602052604060002060ff600282015460201c16158015613c90575b613c7c5760016101c05101806101c0511161174f575b60e051811061359a575b505061358660a051612697565b60a0525b60016101c051016101c0526134ed565b61c3509391935a10613c72576135b381610100516122a9565b90549060031b1c6000526101805160205260406000209060ff600283015460201c16158015613c5d575b613c515760018501549060ff8260f01c16600260ff600186015492818460f01c1690818111600014613c42579061361391613474565b925b8560f81c9060f81c90818111600014613c33579061363291613474565b925b1611908115613c25575b50613c15575061365761ffff61367a9260d01c16612d17565b60018601805461ffff60d01b191660d09290921b61ffff60d01b16919091179055565b6136b461369161ffff600184015460d01c16612d17565b60018301805461ffff60d01b191660d09290921b61ffff60d01b16919091179055565b6136e48454825460405191446020840152856040840152606083015260808201526080815261049560a082612415565b936003810154600383015460ff8706906001820180921161174f5761371a928892600019901b6101605192811916911617613fc8565b6101e0526137456101e051908160001a918060011a918160021a918060031a918160041a9160051a90565b91999197939491929091600a60ff82161015613c0f5750600a945b600061012052600a60ff82161015613c065750600a610120525b600a60ff82161015613c005750600a985b600a60ff82161015613bfa5750600a905b600a60ff82161015613bf45750600a965b600a60ff82161015613bef5750600a5b6137d28189848d610120518a6101e051613f74565b60805260ff600187015460a81c1660ff600189015460a81c1610600014613be85785975b6001890154600160ff8260f01c169160f81c951615600014613bc3578015613bb55761382190613461565b925b6101405160ff85161015613b93575b6101405160ff86161015613b71575b63ffffffff60028901541663ffffffff60028b015416808211600014613b61575061386b9061349a565b955b8060c05261387a90612697565b9b60c051610100519061388c91612ce2565b60018b015460405198906001600160a01b03166138a88a6123f8565b60c0518a5260208a015260ff1660408901526101205160ff16606089015260ff16608088015260ff1660a087015260ff1660c086015260ff1660e085015261010084016050905261012084016050905260ff1661014084015260ff1661016083015263ffffffff166101808201526101a08101600190526080516101c082015260c051600052610180516020526040600020908051825560018201600160a01b60019003600160a01b60019003602084015116166001600160601b0360a01b8254161781556040820151815460ff60a81b606085015160a81b169160ff60b01b608086015160b01b169060ff60b81b60a087015160b81b169160ff60c01b60c088015160c01b169360ff60c81b60e089015160c81b169560ff60c81b199360ff60c01b199260ff60b81b199160ff60a01b9060a01b169062ffffff60a01b1916171617161716171717815561010082015161ffff16613a1f90829081549061ffff60d01b9060d01b169061ffff60d01b1916179055565b610120820151815461ffff60e01b191660e09190911b61ffff60e01b16178155610140820151815460ff60f01b191660f09190911b60ff60f01b1617815561016082015181546001600160f81b031660f89190911b6001600160f81b0319161790556101808101516002830180546101a084015160ff60201b90151560201b1663ffffffff90931664ffffffffff19909116179190911790556101c001516003909101555490546040805160c05193815260208101929092528101919091528060608101037fa77fdd7682f7cba59698c7b88bcc36f654b54f734829b3d8ace249b45bfe7a4190600092a2600101546040805160805160c05182526001600160a01b039093166020820152908101919091526000907f7ac4cf8a3a3f8ad7d36eed06dd066636472ad080f681cb40a48ff307feb1558390606090a23880613579565b613b6b915061349a565b9561386d565b6101405190945060001981011161174f57610140516000190160ff1693613841565b6101405190935060001981011161174f57610140516000190160ff1692613832565b613bbe90613488565b613821565b92938015613bda57613bd490613461565b93613823565b613be390613488565b613bd4565b86976137f6565b6137bd565b966137ad565b9061379c565b9861378b565b6101205261377a565b94613760565b9050600191509391935b0161356f565b6002915060ff16113861363e565b613c3c91613474565b92613634565b613c4b91613474565b92613615565b60019150939193613c1f565b50609661ffff600184015460d01c16106135dd565b506101c051925090565b50613c8860a051612697565b60a05261358a565b50609661ffff600183015460d01c1610613559565b60009190565b6101c0519190565b5061c3505a1061350d565b90805492613ea6576000805b848110613dfa575080613ce1575b50505050600090565b613cea81612651565b93613cf482612651565b9260009060005b838110613d87575050505060018111613d66575b60059150049160005b83811015613cd85780600060008051602061428d8339815191526020613d4060019587612683565b518084528782526040808520600201805464ff000000001916905551908152a201613d18565b60001981019181831161174f576005926000613d829287614128565b613d0f565b613d9181836122a9565b90549060031b1c60005286602052604060002060ff600282015460201c16613dbd575b50600101613cfb565b83613de3613dde838c613dd860019799613df3975492612683565b526124a5565b61402d565b613ded828a612683565b52612697565b9290613db4565b613e0481846122a9565b90549060031b1c60005283602052604060002060028101805460ff8160201c1615613e9b57600183015461ffff8160d01c1615908115613e8b575b5015613e765760206001949360009360008051602061428d8339815191529360ff60201b1916905554604051908152a25b01613cca565b50505090613e85600191612697565b91613e70565b61ffff915060e01c161538613e3f565b505050600190613e70565b505050600090565b6109003b613ec1575b6020815191012090565b9060405191602083016363effb4360e11b815260206024850152815180604486015260005b818110613f5e57509084613f1c6064828560008381999a9b988299010152601f801991011681010301601f198101835282612415565b51906109005afa613f2b61259e565b9080613f52575b613f3c5750613eb7565b9050602081805181010312610317576020015190565b50602081511015613f32565b8060208092860101516064828901015201613ee6565b9560ff60d01b9060d01b169460ff60d81b9060d81b169360ff60e01b9060e01b169260ff60e81b9060e81b169160ff60f01b9060f01b169060ff60f81b9060f81b1617171717179060018060d01b03161790565b929192811561402857908060081b9081046101000361174f5761271090939193046000915b818310613ff957505050565b61401760019160405190602082015260208152610495604082612415565b948160ff87161b1892019193613fed565b925050565b61ffff610120820151161580156140c0575b6140ba5763ffffffff61018061409961408961407b61406d60ff60408801511660ff60608901511690612571565b60ff60808801511690612571565b60ff60e08701511690612571565b61ffff610100860151169061261c565b92015116906001820180921161174f576103e8916140b69161261c565b0490565b50600090565b506101a08101511561403f565b8181039291600013801582851316918412161761174f57565b9190916000838201938412911290801582169115161761174f57565b6001600160ff1b03811461174f5760010190565b600160ff1b811461174f576000190190565b92919081838482146127c95761415a61415461414e61414785896140cd565b6002900590565b846140e6565b84612683565b515b818513156141a1575080821261418f575b505082821261417d575b50505050565b61418693614128565b38808080614177565b61419a918387614128565b388061416d565b95969192939490945b866141b58287612683565b5110156141ca576141c590614102565b6141aa565b93945b6141d78187612683565b518710156141ed576141e890614116565b6141cd565b90949291969581851361415c5790936142606142669161420d8787612683565b516142188288612683565b516142238989612683565b5261422e8288612683565b52614239878a612683565b51614244828b612683565b5161424f898c612683565b5261425a828b612683565b52614102565b94614116565b9061415c56fe9db3381da76d2afc09f4f2401734fd77137ed6a0f8eff5b21b026944e1372a9696901c88bd3a9e0ea740ea7fa07e40bd87db740b63c6b98be12f41a76ddf31df18231288079cbac3c122a56c58aa6cdac11d7672096afc2b1b09d77fd9671f4f9b779b17422d0df92223018b32b4d1fa46e071723d6817e2486d003becc55f00a26469706673582212202e16df7eb6f427536461b872ccf226806237e1f7f0da400a750b25ba25db6dc264736f6c634300081c0033","linkReferences":{}},"methodIdentifiers":{"EMERGENCY_DELAY()":"82944e2d","PROTOCOL_FEE_BPS()":"be378228","arenaCreatedAt(uint256)":"b346e432","arenaCreatureIds(uint256,uint256)":"0aa27d87","arenaCreatures(uint256,uint256)":"3ac04391","arenaPlayerCount(uint256)":"45a6e484","arenaPlayers(uint256,uint256)":"23b530fb","arenas(uint256)":"84f4319c","claimReward(uint256)":"ae169a50","continueRound(uint256)":"5e1466bf","createArena(uint256,uint256,uint256,uint256,uint256,uint256)":"6074e0d6","currentPhase(uint256)":"b1fb6405","distributeRewards(uint256)":"59974e38","emergencyWithdraw(uint256)":"5312ea8e","feeRecipient()":"46904840","foodTiles(uint256,uint256)":"ee79cc18","getAllCreatures(uint256)":"fa8f2ac0","getArena(uint256)":"1a8425b4","getCreature(uint256,uint256)":"18a4d048","getCreatureIds(uint256)":"dfc10751","hasJoined(uint256,address)":"68194719","joinArena(uint256)":"f6b3a00a","nextArenaId()":"cf8753b2","nextCreatureId()":"839cab65","owner()":"8da5cb5b","pause()":"8456cb59","paused()":"5c975abb","pendingRewards(uint256,address)":"d18df53c","processedIndex(uint256)":"8e21ff7b","renounceOwnership()":"715018a6","rewardsDistributed(uint256)":"a3b5fcd8","runEvolutionRound(uint256)":"276c2702","setFeeRecipient(address)":"e74b981b","startArena(uint256)":"b506c163","transferOwnership(address)":"f2fde38b","triggerDisaster(uint256,uint8)":"4f6d67a3","unpause()":"3f4ba83a"},"id":24}